:100000007CC000000C947C14A9C00000A7C00000B4
:10001000A5C0000011C10000EAC000009FC00000A0
:100020009DC000009BC0000099C0000097C0000068
:1000300095C0000093C0000091C000008FC0000078
:100040008DC000008BC0000089C0000087C0000088
:1000500085C0000083C0000081C000007FC0000098
:100060007DC000007BC0000079C0000077C00000A8
:1000700075C0000073C0000071C000006FC00000B8
:100080006DC000006BC0000069C0000067C00000C8
:1000900065C0000063C0000061C000005FC00000D8
:1000A0005DC000005BC0000059C0000057C00000E8
:1000B00055C0000053C0000051C000004FC00000F8
:1000C0004DC000004BC0000049C0000047C0000008
:1000D00045C0000043C0000041C000003FC0000018
:1000E0003DC00000331636161A161D1620162316AC
:1000F000261629162C162F161A2211241FBECFEFF2
:10010000D1E2DEBFCDBF00E00CBF12E0A0E0B2E064
:10011000EEEAF7E400E00BBF02C007900D92A037B3
:10012000B107D9F72EE1A0E7B2E001C01D92A731D7
:10013000B207E1F710E0CAEFD0E000E006C0229776
:100140000109FE010BBF0E94D123C83FD10780E007
:100150000807A9F70E94FF200C94D52351CFE1E2B4
:10016000F1E010828FEF8093250191E090932401BC
:10017000109229018093280110922B0180932A016B
:1001800010922D0180932C0189EA809320018BE04D
:100190008083089581B18F6081B982B1807F82B9F7
:1001A000EAE0F1E0808188618083EBE0F1E080812A
:1001B0008861808308956C98749A08956D98759AF3
:1001C0000895E8DFF8DFFACF0895F894EAE6F0E062
:1001D000808182608083EC9A78940895F894EAE6AE
:1001E000F0E0808188608083ED9A789408951F9272
:1001F0000F920FB60F9211248F939F93AF93BF93DB
:1002000080910C1E90910D1EA0910E1EB0910F1E9C
:100210000196A11DB11D80930C1E90930D1EA093FD
:100220000E1EB0930F1EBF91AF919F918F910F90B3
:100230000FBE0F901F9018951F920F920FB60F923E
:1002400011248F939F93AF93BF938091101E909131
:10025000111EA091121EB091131E0196A11DB11D79
:100260008093101E9093111EA093121EB093131E24
:10027000BF91AF919F918F910F900FBE0F901F90E4
:10028000189592B1907F8F70982B92B9089586E05F
:10029000F8DF80EF8093280186EE80932A0108958D
:1002A00089E0EFCF089585E0ECCF08958AE0E9CFAB
:1002B000089580E0E6CF08950F931F93BC0180E07E
:1002C00090E00E942E2325EE30ED4AEA50E40E9491
:1002D00095220E94022310920C1E10920D1E109265
:1002E0000E1E10920F1E00910C1E10910D1E2091DB
:1002F0000E1E30910F1E601771078207930798F743
:10030000D8DF1F910F910895CF93DF93EC01BFDFEA
:10031000CE01D2DFDF91CF910895CF93DF93EC012F
:10032000BFDFCE01C9DFDF91CF910895F89449DF97
:1003300016DF4BDF53DF789408952F923F924F9250
:100340005F926F927F928F929F92AF92BF92CF9265
:10035000DF92EF92FF920F931F93CF93DF9323E6E9
:1003600020938003EEE9F3E0F0938603E0938503A6
:1003700000ED14E010938803009387038BE693E06D
:1003800090938A038093890390938C0380938B03CB
:100390000F2EF9E6FF2EF02DF09291039093970324
:1003A00080939603909399038093980390939D0371
:1003B00080939C0390939B0380939A0336E730933A
:1003C000A20362EE73E07093A8036093A703C6E4F0
:1003D000D6E0D093AA03C093A9030F2EFCE7AF2E5B
:1003E000F3E0BF2EF02DB092AC03A092AB0390933C
:1003F000AE038093AD03F092B3039093B90380935F
:10040000B8039093BB038093BA039093BF03809388
:10041000BE039093BD038093BC03F092C4039093FA
:10042000CA038093C9039093CC038093CB0390932A
:10043000D0038093CF039093CE038093CD03F092AB
:10044000D5039093DB038093DA039093DD038093CD
:10045000DC039093E1038093E0039093DF038093A8
:10046000DE033093E603A4E0B4E0B093EC03A09382
:10047000EB034AE856E05093EE034093ED03F0930C
:10048000F003E093EF039093F2038093F103F09273
:10049000F7039093FD038093FC039093FF038093F5
:1004A000FE039093030480930204909301048093CD
:1004B00000042093080490930E0480930D0428E513
:1004C00035E03093100420930F047093120460936E
:1004D000110490931404809313040F2EF8E6DF2E7A
:1004E000F02DD092D4049093DA048093D9040F2E87
:1004F000F8E78F2EF7E09F2EF02D9092DC0480928B
:10050000DB049093DE048093DD04B092E004A092BB
:10051000DF04F092E5049093EB048093EA04909357
:10052000ED048093EC049093F1048093F004909395
:10053000EF048093EE04F092F6049093FC04809311
:10054000FB049093FE048093FD0490930205809336
:100550000105909300058093FF04F09207059093A6
:100560000D0580930C0590930F0580930E059093D5
:100570001305809312059093110580931005F09256
:10058000180590931E0580931D0590932005809378
:100590001F05909324058093230590932205809353
:1005A0002105F092290590932F0580932E059093B5
:1005B00031058093300590933505809334059093F1
:1005C000330580933205F0923A059093400580936D
:1005D0003F05909342058093410590934605809393
:1005E00045059093440580934305F0924B05909305
:1005F0005105809350059093530580935205909335
:100600005705809356059093550580935405D092D5
:100610005C0590936205809361050F2EF0E0AF2E8C
:10062000F8E0BF2EF02DB0926405A0926305909380
:10063000660580936505B0936805A0936705F09201
:10064000280690932E0680932D0690933006809373
:100650002F0690933406809333069093320680934E
:1006600031060F2EF3E7EF2EF02DE0923906D093EE
:100670003F06C0933E060F2EFDED2F2EF8E03F2ED5
:10068000F02D3092410620924006909343068093CD
:1006900042069093450680934406E0924A06A7E5F9
:1006A000B6E0B0935006A0934F0690935206809305
:1006B00051060F2EF5E38F2EF6E09F2EF02D90922F
:1006C000540680925306F0935606E0935506E09246
:1006D0005B069093610680936006EBEAF7E0F09387
:1006E0006306E0936206D0936506C0936406909318
:1006F000670680936606F0926C069093720680936C
:100700007106909374068093730690937806809395
:1007100077069093760680937506E0927D06509357
:100720008306409382060F2EFDECAF2EF7E0BF2E1E
:10073000F02DB0928506A092840690938706809350
:1007400086069093890680938806E0928E06CBE910
:10075000D6E0D0939406C093930690939606809328
:100760009506C9E7D6E0D0939806C0939706709394
:100770009A0660939906E0929F069093A50680934F
:10078000A4060F2EF3E44F2EF9E05F2EF02D5092C9
:10079000A7064092A6065093A9064093A8069093F8
:1007A000AB068093AA06F092B0069093B6068093AB
:1007B000B5069093B8068093B7069093BC068093D5
:1007C000BB069093BA068093B906D0927C079093AB
:1007D0008207809381070F2EF0E26F2EFAE07F2EC2
:1007E000F02D709284076092830790938607809320
:1007F00085071093880700938707F0928D079093E1
:100800009307809392079093950780939407909312
:100810009907809398079093970780939607F09293
:100820009E079093A4078093A3079093A6078093B5
:10083000A5079093AA078093A9079093A807809390
:10084000A707E092AF076CEB77E07093B507609372
:10085000B4070FEF18E01093B7070093B607909313
:10086000B9078093B807B093BB07A093BA070F2EC0
:10087000FAE6CF2EF02DC092C007B092C607A09224
:10088000C50748EB5BE05093C8074093C707F09358
:10089000CA07E093C9079093CC078093CB07E092F7
:1008A000D1079093D7078093D607A1E2B9E0B09320
:1008B000D907A093D8077093DB076093DA07D0932A
:1008C000DD07C093DC07F092E2079093E80780937E
:1008D000E7079093EA078093E9079093EE078093E8
:1008E000ED079093EC078093EB07F092F30790935A
:1008F000F9078093F8079093FB078093FA0790938A
:10090000FF078093FE079093FD078093FC07D0922A
:10091000040890930A0880930908C8EADAE0D093A3
:100920000C08C0930B0890930E0880930D08309329
:10093000100820930F08F092D0089093D608809367
:10094000D5089093D8088093D7089093DC088093BB
:10095000DB089093DA088093D908E092E1082EEE44
:1009600038E03093E7082093E6089093E9088093F5
:10097000E8089093EB088093EA089092ED08809243
:10098000EC08E092F2081093F8080093F708CAEE1A
:10099000DCE0D093FA08C093F9083092FC0820926A
:1009A000FB089093FE088093FD08E0920309909362
:1009B00009098093080990930B0980930A093093E1
:1009C0000D0920930C09F0930F09E0930E09F092A2
:1009D000140990931A098093190990931C09809324
:1009E0001B099093200980931F0990931E098093FF
:1009F0001D09E0922509E2E3F9E0F0932B09E09369
:100A00002A0990932D0980932C0990932F098093A4
:100A10002E09B0923109A0923009E0923609509225
:100A20003C0940923B090EE21DE010933E09009301
:100A30003D09B0934009A0933F09909342098093E8
:100A40004109E092470990934D0980934C09909396
:100A50004F0980934E09F0935109E0935009EBE957
:100A6000F6E0F0935309E0935209F09258099093FD
:100A70005E0980935D099093600980935F0990936C
:100A80006409809363099093620980936109D0920D
:100A9000240A90932A0A8093290AE8ECFCE0F09358
:100AA0002C0AE0932B0A90932E0A80932D0A0F2E86
:100AB000F8E78F2EF7E09F2EF02D9092300A80926B
:100AC0002F0AF092350A90933B0A80933A0A90934A
:100AD0003D0A80933C0A9093410A8093400A909388
:100AE0003F0A80933E0AF092460A90934C0A809304
:100AF0004B0A90934E0A80934D0A9093520A80932A
:100B0000510A9093500A80934F0AF092570A90939B
:100B10005D0A80935C0A90935F0A80935E0A9093CB
:100B2000630A8093620A9093610A8093600AF0924C
:100B3000680A90936E0A80936D0A9093700A80936E
:100B40006F0A9093740A8093730A9093720A809349
:100B5000710AF092790A90937F0A80937E0A9093AB
:100B6000810A8093800A9093850A8093840A9093E7
:100B7000830A8093820AF0928A0A9093900A809363
:100B80008F0A9093920A8093910A9093960A809389
:100B9000950A9093940A8093930AF0929B0A9093FB
:100BA000A10A8093A00A9093A30A8093A20A90932B
:100BB000A70A8093A60A9093A50A8093A40AD092CC
:100BC000AC0A9093B20A8093B10AA0E5BDE0B0935D
:100BD000B40AA093B30A9093B60A8093B50A0F2E75
:100BE000F0E0AF2EF8E0BF2EF02DB092B80AA09240
:100BF000B70AF092780B90937E0B80937D0B9093C5
:100C0000800B80937F0B9093840B8093830B909346
:100C1000820B8093810BF092890B90938F0B8093C2
:100C20008E0B9093910B8093900B9093950B8093E8
:100C3000940B9093930B8093920BF0929A0B90935A
:100C4000A00B80939F0B9093A20B8093A10B90938A
:100C5000A60B8093A50B9093A40B8093A30BE0921B
:100C6000AB0B5093B10B4093B00BABEFBCE0B09328
:100C7000B30BA093B20B9093B50B8093B40B9093EE
:100C8000B70B8093B60BE092BC0B09EC1BE0109302
:100C9000C20B0093C10B9093C40B8093C30B07EA64
:100CA0001BE01093C60B0093C50B7093C80B6093A9
:100CB000C70BE092CD0B9093D30B8093D20B6DE1D9
:100CC0007DE07093D50B6093D40B5093D70B40937A
:100CD000D60B9093D90B8093D80BF092DE0B9093A8
:100CE000E40B8093E30B9093E60B8093E50B9093DA
:100CF000EA0B8093E90B9093E80B8093E70BF0925B
:100D0000EF0B9093F50B8093F40B9093F70B80937C
:100D1000F60B9093FB0B8093FA0B9093F90B809357
:100D2000F80BF092000C9093060C8093050C9093B6
:100D3000080C8093070C90930C0C80930B0C9093F1
:100D40000A0C8093090CD092CC0CD093D20CC09397
:100D5000D10C40E75FE05093D40C4093D30C9093B8
:100D6000D60C8093D50C7092D80C6092D70CF09270
:100D7000DD0C9093E30C8093E20C9093E50C809350
:100D8000E40C9093E90C8093E80C9093E70C80932B
:100D9000E60CC092EE0CB093F40CA093F30C46EE6C
:100DA00050E15093F60C4093F50CF093F80CE0935F
:100DB000F70C3093FA0C2093F90CE092FF0C90930F
:100DC000050D8093040D8FE49EE09093070D8093B2
:100DD000060DD093090DC093080D10930B0D0093D1
:100DE0000A0DF092100D8BE693E09093160D809310
:100DF000150D9093180D8093170D90931C0D8093F3
:100E00001B0D90931A0D8093190DE092210DCEE2E7
:100E1000DDE0D093270DC093260D61E77EE070934F
:100E2000290D6093280D90932B0D80932A0D29ECAA
:100E30003BE030932D0D20932C0DC092320D20E518
:100E40003DE03093380D2093370DAAE2B1E1B09325
:100E50003A0DA093390D4DE15DE050933C0D409368
:100E60003B0DE2E3F9E0F0933E0DE0933D0DF0928F
:100E7000430D9093490D8093480D90934B0D8093B3
:100E80004A0D90934F0D80934E0D90934D0D80938E
:100E90004C0DD092540D90935A0D8093590D0F2EF6
:100EA000F8EF6F2EFFE07F2EF02D70925C0D6092B8
:100EB0005B0DD0935E0DC0935D0DE8EAFAE0F09310
:100EC000600DE0935F0DF092200E9093260E8093BC
:100ED000250E9093280E8093270E90932C0E8093CE
:100EE0002B0E90932A0E8093290EF092310E909340
:100EF000370E8093360E9093390E8093380E909370
:100F00003D0E80933C0E90933B0E80933A0EF092F0
:100F1000420E9093480E8093470E90934A0E809312
:100F2000490E90934E0E80934D0E90934C0E8093ED
:100F30004B0EE092530EE0E6FEE0F093590EE09384
:100F4000580E90935B0E80935A0E90935D0E809393
:100F50005C0E0BEF1CE010935F0E00935E0EE092B0
:100F6000640E70936A0E6093690E6CE572E1709383
:100F70006C0E60936B0E0FE41EE010936E0E0093E8
:100F80006D0E9093700E80936F0EE092750E90939D
:100F90007B0E80937A0E90937D0E80937C0EF0935F
:100FA0007F0EE0937E0E5093810E4093800EF09260
:100FB000860E90938C0E80938B0E90938E0E809362
:100FC0008D0E9093920E8093910E9093900E80933D
:100FD0008F0EF092970E90939D0E80939C0E90939F
:100FE0009F0E80939E0E9093A30E8093A20E9093DB
:100FF000A10E8093A00EF092A80E9093AE0E809357
:10100000AD0E9093B00E8093AF0E9093B40E80937C
:10101000B30E9093B20E8093B10ED092740F909352
:101020007A0F8093790F08E112E110937C0F0093FF
:101030007B0F90937E0F80937D0F48EC5CE0509384
:10104000800F40937F0FF092850F90938B0F8093CA
:101050008A0F90938D0F80938C0F9093910F8093B4
:10106000900F90938F0F80938E0FF092960F909326
:101070009C0F80939B0F90939E0F80939D0F909356
:10108000A20F8093A10F9093A00F80939F0FF092D7
:10109000A70F9093AD0F8093AC0F9093AF0F8093F9
:1010A000AE0F9093B30F8093B20F9093B10F8093D4
:1010B000B00FF092B80F9093BE0F8093BD0F909336
:1010C000C00F8093BF0F9093C40F8093C30F909372
:1010D000C20F8093C10FF092C90F9093CF0F8093EE
:1010E000CE0F9093D10F8093D00F9093D50F809314
:1010F000D40F9093D30F8093D20FF092DA0F909386
:10110000E00F8093DF0F9093E20F8093E10F9093B5
:10111000E60F8093E50F9093E40F8093E30FF09236
:10112000EB0F9093F10F8093F00F9093F30F809358
:10113000F20F9093F70F8093F60F9093F50F809333
:10114000F40FD092FC0F909302108093011040EAAC
:1011500052E1509304104093031090930610809333
:1011600005103093081020930710F092C810909348
:10117000CE108093CD109093D0108093CF10909389
:10118000D4108093D3109093D2108093D110E0921A
:10119000D91026EE30E13093DF102093DE100F2EB1
:1011A000FDE72F2EF3E13F2EF02D3092E11020923B
:1011B000E0109093E3108093E2109093E5108093F9
:1011C000E410E092EA1007EF10E11093F0100093A2
:1011D000EF109093F2108093F1100F2EF5ED4F2E3B
:1011E000F0E15F2EF02D5092F4104092F3104AEE91
:1011F0005CE05093F6104093F510E092FB10909352
:101200000111809300114BE452E15093031140937C
:1012100002113093051120930411909307118093CC
:101220000611F0920C11909312118093111190936A
:1012300014118093131190931811809317119093A8
:10124000161180931511E0921D11B0932311A093F4
:1012500022112DE632E13093251120932411909331
:101260002711809326119093291180932811E092E1
:101270002E110F2EFBE38F2EF1E19F2EF02D909279
:1012800034118092331190933611809335110F2EC3
:10129000F9E18F2EF1E19F2EF02D9092381180927E
:1012A0003711D0933A11C0933911E0923F119093C6
:1012B0004511809344110F2EF3EEAF2EF3E1BF2EB4
:1012C000F02DB0924711A0924611B0934911A0930E
:1012D000481190934B1180934A11F09250119093C2
:1012E00056118093551190935811809357119093F4
:1012F0005C1180935B1190935A1180935911D09295
:101300001C129093221280932112A0ECB4E1B093AE
:101310002412A09323129093261280932512C0E7E3
:10132000DFE0D0932812C0932712F0922D129093F1
:10133000331280933212909335128093341290932B
:101340003912809338129093371280933612F092AC
:101350003E129093441280934312909346128093CE
:10136000451290934A1280934912909348128093A9
:101370004712E0924F127093551260935412CFE9C6
:10138000D3E1D0935712C093561290935912809381
:10139000581210935B1200935A12C092601230934D
:1013A000661220936512909368128093671250938F
:1013B0006A1240936912F0936C12E0936B12E09200
:1013C00071129093771280937612E1ECF3E1F0932F
:1013D0007912E093781270937B1260937A12909254
:1013E0007D1280927C12F0928212909388128093E8
:1013F000871290938A128093891290938E12809311
:101400008D1290938C1280938B12F0929312909382
:1014100099128093981290939B1280939A129093B2
:101420009F1280939E1290939D1280939C12D09253
:10143000A4129093AA128093A91268E475E17093A4
:10144000AC126093AB129093AE128093AD12709277
:10145000B0126092AF12F092701390937613809353
:101460007513909378138093771390937C138093E4
:101470007B1390937A1380937913E09281136EE833
:1014800073E170938713609386139093891380930D
:10149000881390938B1380938A1350928D134092EC
:1014A0008C13E0929213D0939813C0939713C6E3D2
:1014B000D6E1D0939A13C093991330929C13209243
:1014C0009B1390939E1380939D13E092A31390938C
:1014D000A9138093A8139093AB138093AA137093CE
:1014E000AD136093AC135093AF134093AE13F092CF
:1014F000B4139093BA138093B9139093BC13809351
:10150000BB139093C0138093BF139093BE1380932B
:10151000BD13E092C51342ED53E15093CB134093BA
:10152000CA139093CD138093CC139093CF138093D1
:10153000CE133093D1132093D013E092D613B092F0
:10154000DC13A092DB132AE736E13093DE132093FD
:10155000DD13F093E013E093DF139093E213809395
:10156000E113E092E7139093ED138093EC139093C3
:10157000EF138093EE135093F1134093F0130F2E5B
:10158000FBE3AF2EF1E1BF2EF02DB092F313A0924A
:10159000F213F092F8139093FE138093FD1390933F
:1015A00000148093FF13909304148093031490937A
:1015B000021480930114D092C4149093CA1480939F
:1015C000C914E4E1F6E1F093CC14E093CB149093CA
:1015D000CE148093CD1408E112E11093D01400933F
:1015E000CF14F092D5149093DB148093DA14909377
:1015F000DD148093DC149093E1148093E0149093B5
:10160000DF148093DE14F092E6149093EC14809330
:10161000EB149093EE148093ED149093F214809356
:10162000F1149093F0148093EF14F092F7149093C8
:10163000FD148093FC149093FF148093FE149093F8
:101640000315809302159093011580930015F09275
:10165000081590930E1580930D1590931015809397
:101660000F15909314158093131590931215809372
:101670001115F092191590931F1580931E159093D4
:101680002115809320159093251580932415909310
:10169000231580932215F0922A159093301580938C
:1016A0002F159093321580933115909336158093B2
:1016B00035159093341580933315F0923B15909324
:1016C0004115809340159093431580934215909354
:1016D0004715809346159093451580934415D092F5
:1016E0004C1590935215809351150CE916E1109307
:1016F00054150093531590935615809355150F2E3E
:10170000F0EA8F2EF2E19F2EF02D909258158092E4
:1017100057150F2EF3E6EF2EF02DE0921816D0930A
:101720001E16C0931D169093201680931F1690933B
:10173000221680932116B0932416A0932316F092BC
:10174000291690932F1680932E169093311680931E
:1017500030169093351680933416909333168093F9
:101760003216A6E7A0933A163093401620933F1600
:101770009093421680934116F0934416E0934316DB
:101780007093461660934516F0924B16909351163F
:101790008093501690935316809352169093571639
:1017A000809356169093551680935416F0925C16BB
:1017B00090936216809361169093641680936316DB
:1017C00090936816809367169093661680936516BB
:1017D000F0926D169093731680937216909375160F
:1017E0008093741690937916809378169093771659
:1017F00080937616A0937E1610938416009383161A
:101800009093861680938516D0938816C09387167A
:1018100050938A1640938916F0928F1690939516DE
:1018200080939416909397168093961690939B1698
:1018300080939A16909399168093981623E6209396
:10184000A0169093A6168093A5169093A816809341
:10185000A7168AE796E19093AA168093A91688E4C2
:1018600095E19093AC168093AB1610928203109280
:1018700081031092840310928303109293031092B9
:10188000920301E010E010939503009394031092EB
:10189000A4031092A303C2E0D0E0D093A603C093A8
:1018A000A5031092B5031092B403A3E0B0E0B09387
:1018B000B703A093B6031092C6031092C503E4E0E9
:1018C000F0E0F093C803E093C7031092D70310929F
:1018D000D60365E070E07093D9036093D80310924B
:1018E000E8031092E70346E050E05093EA03409388
:1018F000E9031092F9031092F80327E030E03093E7
:10190000FB032093FA0310920A041092090488E062
:1019100090E090930C0480930B041093D6040093F2
:10192000D5041092D8041092D7041093E7040093C2
:10193000E6041093E9040093E8041093F80400937C
:10194000F704D093FA04C093F904109309050093A7
:101950000805B0930B05A0930A0510931A05009390
:101960001905F0931C05E0931B0510932B050093BC
:101970002A0570932D0560932C0510933C05009368
:101980003B0550933E0540933D0510934D05009354
:101990004C0530934F0520934E0510935E05009340
:1019A0005D059093600580935F05D0932A06C093F0
:1019B000290610922C0610922B06D0933B06C0935A
:1019C0003A0610933D0600933C06D0934C06C09314
:1019D0004B06D0934E06C0934D06D0935D06C09340
:1019E0005C06B0935F06A0935E06D0936E06C0932C
:1019F0006D06F0937006E0936F06D0937F06C09358
:101A00007E067093810660938006D0939006C09303
:101A10008F065093920640939106D093A106C093EF
:101A2000A0063093A3062093A206D093B206C093DB
:101A3000B1069093B4068093B306B0937E07A0934B
:101A40007D071092800710927F07B0938F07A093B5
:101A50008E071093910700939007B093A007A0936F
:101A60009F07D093A207C093A107B093B107A0939B
:101A7000B007B093B307A093B207B093C207A09387
:101A8000C107F093C407E093C307B093D307A093B3
:101A9000D2077093D5076093D407B093E407A0935F
:101AA000E3075093E6074093E507B093F507A0934B
:101AB000F4073093F7072093F607B0930608A09336
:101AC00005089093080880930708F093D208E093E4
:101AD000D1081092D4081092D308F093E308E09351
:101AE000E2081093E5080093E408F093F408E0930B
:101AF000F308D093F608C093F508F0930509E09336
:101B00000409B0930709A0930609F0931609E0931E
:101B10001509F0931809E0931709F0932709E0934A
:101B200026097093290960932809F0933809E093F6
:101B3000370950933A0940933909F0934909E093E2
:101B4000480930934B0920934A09F0935A09E093CE
:101B5000590990935C0980935B097093260A6093FE
:101B6000250A1092280A1092270A7093370A609368
:101B7000360A1093390A0093380A7093480A609322
:101B8000470AD0934A0AC093490A7093590A60934E
:101B9000580AB0935B0AA0935A0A70936A0A60933A
:101BA000690AF0936C0AE0936B0A70937B0A609366
:101BB0007A0A70937D0A60937C0A70938C0A609312
:101BC0008B0A50938E0A40938D0A70939D0A6093FE
:101BD0009C0A30939F0A20939E0A7093AE0A6093EA
:101BE000AD0A9093B00A8093AF0A50937A0B40935A
:101BF000790B10927C0B10927B0B50938B0B4093C4
:101C00008A0B10938D0B00938C0B50939C0B40937D
:101C10009B0BD0939E0BC0939D0B5093AD0B4093A9
:101C2000AC0BB093AF0BA093AE0B5093BE0B409395
:101C3000BD0BF093C00BE093BF0B5093CF0B4093C1
:101C4000CE0B7093D10B6093D00B5093E00B40936D
:101C5000DF0B5093E20B4093E10B5093F10B409359
:101C6000F00B3093F30B2093F20B5093020C409344
:101C7000010C9093040C8093030C3093CE0C2093B2
:101C8000CD0C1092D00C1092CF0C3093DF0C20931F
:101C9000DE0C1093E10C0093E00C3093F00C2093D9
:101CA000EF0CD093F20CC093F10C3093010D209304
:101CB000000DB093030DA093020D3093120D2093ED
:101CC000110DF093140DE093130D3093230D209319
:101CD000220D7093250D6093240D3093340D2093C5
:101CE000330D5093360D4093350D3093450D2093B1
:101CF000440D3093470D2093460D3093560D20939D
:101D0000550D9093580D8093570D9093220E80930C
:101D1000210E1092240E1092230E9093330E809376
:101D2000320E1093350E0093340E9093440E809330
:101D3000430ED093460EC093450E9093550E80935C
:101D4000540EB093570EA093560E9093660E809348
:101D5000650EF093680EE093670E9093770E809374
:101D6000760E7093790E6093780E9093880E809320
:101D7000870E50938A0E4093890E9093990E80930C
:101D8000980E30939B0E20939A0E9093AA0E8093F8
:101D9000A90E9093AC0E8093AB0E0F2EF9E0EF2EB0
:101DA000F12CF02DF092760FE092750F1092780FD3
:101DB0001092770FF092870FE092860F1093890FA1
:101DC0000093880FF092980FE092970FD0939A0F9C
:101DD000C093990FF092A90FE092A80FB093AB0FA8
:101DE000A093AA0FF092BA0FE092B90FF093BC0F34
:101DF000E093BB0FF092CB0FE092CA0F7093CD0F20
:101E00006093CC0FF092DC0FE092DB0F5093DE0F6B
:101E10004093DD0FF092ED0FE092EC0F3093EF0F57
:101E20002093EE0FF092FE0FE092FD0F90930010C2
:101E30008093FF0F0F2EFAE0EF2EF12CF02DF09291
:101E4000CA10E092C9101092CC101092CB10F092F0
:101E5000DB10E092DA101093DD100093DC10F092AA
:101E6000EC10E092EB10D093EE10C093ED10F092D6
:101E7000FD10E092FC10B093FF10A093FE10F092C2
:101E80000E11E0920D11F0931011E0930F11F092EA
:101E90001F11E0921E117093211160932011F09296
:101EA0003011E0922F115093321140933111F09282
:101EB0004111E09240113093431120934211F0926E
:101EC0005211E092511190935411809353110F2E9F
:101ED000FBE0EF2EF12CF02DF0921E12E0921D127D
:101EE0001092201210921F12F0922F12E0922E12D6
:101EF0001093311200933012F0924012E0923F1290
:101F0000D0934212C0934112F0925112E0925012BB
:101F1000B0935312A0935212F0926212E0926112A7
:101F2000F0936412E0936312F0927312E0927212D3
:101F30007093751260937412F0928412E09283127F
:101F40005093861240938512F0929512E09294126B
:101F50003093971220939612F092A612E092A51257
:101F60009093A8128093A7120F2EFCE0EF2EF12C75
:101F7000F02DF0927213E09271131092741310927C
:101F80007313F0928313E0928213109385130093DE
:101F90008413F0929413E0929313D0939613C0930A
:101FA0009513F092A513E092A413B093A713A093F6
:101FB000A613F092B613E092B513F093B813E09322
:101FC000B713F092C713E092C6137093C9136093CE
:101FD000C813F092D813E092D7135093DA134093BA
:101FE000D913F092E913E092E8133093EB132093A6
:101FF000EA13F092FA13E092F9139093FC13809392
:10200000FB130F2EFDE0EF2EF12CF02DF092C614F5
:10201000E092C5141092C8141092C714F092D7140D
:10202000E092D6141093D9140093D814F092E814C7
:10203000E092E714D093EA14C093E914F092F914F3
:10204000E092F814B093FB14A093FA14F0920A15DE
:10205000E0920915F0930C15E0930B15F0921B1507
:10206000E0921A1570931D1560931C15F0922C15B3
:10207000E0922B1550932E1540932D15F0923D159F
:10208000E0923C1530933F1520933E15F0924E158B
:10209000E0924D159093501580934F150F2EFEE052
:1020A000EF2EF12CF02DF0921A16E09219161092E4
:1020B0001C1610921B16F0922B16E0922A16109303
:1020C0002D1600932C16F0923C16E0923B16D093FE
:1020D0003E16C0933D16F0924D16E0924C16B0930A
:1020E0004F16A0934E16F0925E16E0925D16F09396
:1020F0006016E0935F16F0926F16E0926E16709382
:10210000711660937016F0928016E0927F165093CD
:10211000821640938116F0929116E09290163093B9
:10212000931620939216F092A216E092A116909325
:10213000A4168093A316DF91CF911F910F91FF906A
:10214000EF90DF90CF90BF90AF909F908F907F9057
:102150006F905F904F903F902F9008952CE733E061
:1021600068E677E1B0E0A0E044E650E00EC0F90197
:10217000E80FF91F51834083419689399105B9F7DA
:102180002C5A3E4F2617370719F08B2F9A2FEFCF77
:102190000895EF92FF920F931F93CF93DF93EC017B
:1021A0007B018A010F5F1F4F5983488383E0CB3641
:1021B000D80709F4DDC0C617D70739F40417150787
:1021C0000CF0D6C019830883D3C02E3609F464C03E
:1021D00030F4253609F43BC0293641F0C9C0233715
:1021E00009F4A3C0273709F47CC0C2C0E985FA8589
:1021F000808191810817190724F42EE6A801CF01E8
:10220000C8DFEB85FC8580819181081719072CF4C4
:1022100025E6A801B701CF01BCDFED85FE858081F1
:102220009181081719072CF423E7A801B701CF0102
:10223000B0DFEF85F88980819181081719070CF0CC
:1022400097C027E7A801B701CF01A3DF91C0E985B7
:10225000FA85808191810817190724F42EE6A801D8
:10226000CF0197DFEB85FC858081918108171907E5
:102270002CF425E6A801B701CF018BDFED85FE85A3
:1022800080819181081719070CF072C023E7A8011B
:10229000B701CF017EDF6CC0E985FA85808191812D
:1022A0000817190724F42EE6A801CF0172DFEB8589
:1022B000FC8580819181081719072CF425E6A80177
:1022C000B701CF0166DFEF85F8898081918108171A
:1022D00019070CF04DC027E7A801B701CF0159DF5E
:1022E00047C0E985FA85808191810817190724F490
:1022F0002EE6A801CF014DDFED85FE85808191811D
:10230000081719072CF423E7A801B701CF0141DF13
:10231000EF85F88980819181081719074CF527E727
:10232000A801B701CF0135DF23C0EB85FC85808193
:1023300091810817190724F425E6A801CF0129DFA8
:10234000ED85FE8580819181081719072CF423E71C
:10235000A801B701CF011DDFEF85F8898081918148
:10236000081719072CF427E7A801B701CF0111DFDF
:10237000DF91CF911F910F91FF90EF9008950F93F0
:102380001F93CF93DF93EC018B01E8DE29E640E059
:1023900050E0B801CE01FDDEDF91CF911F910F918A
:1023A00008958F929F92AF92BF92CF92DF92EF9259
:1023B000FF920F931F93CF93DF93CDB7DEB7C65C29
:1023C000D1090FB6F894DEBF0FBECDBFFB01681771
:1023D000790709F46BC040911502509116029E01D5
:1023E0002F5F3F4F49016894AA24A1F8B12CCC2457
:1023F000C394D12C6894EE24E2F8F12C03E010E0B1
:10240000218532852417350779F060817181D901E2
:102410002D913C91261737073CF4D4010D931C9362
:102420000184F285E02D3BC0238534854217530794
:1024300079F060817181D9012D913C912617370780
:102440003CF4D401ED92FC920384F485E02D27C086
:10245000258536854217530779F060817181D9014E
:102460002D913C91261737073CF4D401CD92DC9294
:102470000584F685E02D13C0278530894217530760
:1024800071F060817181D9012D913C912617370738
:1024900034F4D401AD92BC920784F089E02DB2E00F
:1024A0008B0E911CE817F90709F0AACFCE0101960F
:1024B000CA53DF4F0FB6F894DEBF0FBECDBFDF911A
:1024C000CF911F910F91FF90EF90DF90CF90BF9031
:1024D000AF909F908F900895CF93DF9328EC3CE0CE
:1024E00030936A0320936903909366038093650396
:1024F000609163037091640342DF609163037091A4
:102500006403FB01C081D181D0936203C093610356
:10251000809165039091660344DF1C161D068CF4C0
:102520009E01220F331FDC01A20FB31FEBE9F2E083
:1025300025563D4F9E918E9181939193E217F3071B
:10254000C9F7DF91CF91089586E69EE00197F1F7F4
:1025500000004098419880E388B9429A8FEF97E451
:102560000197F1F700C00000429886E69EE00197CF
:10257000F1F700004098419880E388B9429A8FEFC4
:1025800097E40197F1F700C00000429886E69EE0CC
:102590000197F1F700004098419880E388B9429A8A
:1025A0008FEF97E40197F1F700C00000429886E6AC
:1025B0009EE00197F1F700004098419880E288B9C9
:1025C000429A8FEF97E40197F1F700C0000042981C
:1025D000089598B19F7098B998B1282F207F922BB9
:1025E00098B940984198429AEFEFF7E43197F1F7A4
:1025F00000C00000429898B19F7098B998B1829538
:10260000807F892B88B940984198429A8FEF97E450
:102610000197F1F700C000004298089595DF86E623
:102620009EE00197F1F7000088E2D3DF81E0D1DF7F
:1026300086E0CFDF8EE0CDDF80E8CBCF089598B184
:102640009F7098B998B1282F207F922B98B9409A03
:102650004198429AEFEFF7E43197F1F700C000009C
:10266000429898B19F7098B998B18295807F892BD4
:1026700088B9409A4198429A8FEF97E40197F1F711
:1026800000C000004298089580E8A3CF0895CF933A
:10269000DF93EC018881882329F02196D0DF89918E
:1026A0008111FCCFDF91CF910895823069F018F449
:1026B000813031F00895833059F0843069F0089505
:1026C0008FE7860F86CF08958FEB860F82CF089510
:1026D00083E9860F7ECF089583ED860F7ACF089524
:1026E0000F931F93CF93DF938A01E901882311F0A1
:1026F000611102C0C9DF01C0D8DFC530D10509F0C2
:10270000D5C09801329522952F7023273F7023273B
:10271000A7E4B3E00E94C223969587959695879586
:1027200096958795C0969093900280938F0287DF4D
:102730009801369527953695279536952795A5ECDA
:10274000B0E20E94C223AC01529542954F704527DA
:102750005F70452750939A02409399029A01ADEC1D
:10276000BCEC0E94C2239695879596958795969581
:1027700087959C01220F331F880F991F880F991F7F
:10278000880F991F820F931F481B590BCA01C096CF
:10279000909392028093910252DF04C0C330D1051E
:1027A00009F089C098013695279536952795ABE7AE
:1027B000B4E10E94C223AC015695479550939A020A
:1027C000409399029A01ADECBCEC0E94C22396950D
:1027D000879596958795969587959C01220F331F2F
:1027E000880F991F880F991F880F991F820F931FB9
:1027F000481B590BCA01C096909394028093930290
:102800001EDF9801ADECBCEC0E94C223AC015695D2
:102810004795569547955695479550939A024093FC
:1028200099029A010E94C22396958795969587955D
:10283000969587959C01220F331F880F991F880F4B
:10284000991F880F991F820F931F481B590BCA01AC
:10285000C0969093960280939502F1DE03C0C1303A
:10286000D105F9F49801ADECBCEC0E94C223969519
:10287000879596958795969587959C01220F331F8E
:10288000880F991F880F991F880F991F820F931F18
:10289000081B190BC801C096909398028093970269
:1028A000CEDE269764F085E4CADE09C0C430D105C7
:1028B00009F074CF3DCFC230D10589F6A2CFDF91A8
:1028C000CF911F910F91089587B1876F87B988B114
:1028D000807888B908958AB18E6F8AB9589A089518
:1028E000F3DFF9CF0895F894E9E6F0E080818260A3
:1028F0008083E89A789408951F920F920FB60F92F2
:1029000011248F939F93AF93BF9380918B029091EB
:102910008C02A0918D02B0918E020196A11DB11D75
:1029200080938B0290938C02A0938D02B0938E02C1
:10293000BF91AF919F918F910F900FBE0F901F90FD
:102940001895F894CDDFCFDF789408955E985F985E
:1029500008955E9A5F9A08955E985F9A08955C9ACA
:102960005D9A0895F3DF10928B0210928C02109200
:102970008D0210928E022FEF8FE794E0215080405D
:102980009040E1F700C0000080918B0290918C0292
:10299000A0918D02B0918E0280938702909388025D
:1029A000A0938902B0938A0261E081E07EDE87E134
:1029B00092E06DDE40918702509188026091890219
:1029C00070918A0225E030E061E082E089DE2FEF3D
:1029D0008FEF9CE2215080409040E1F700C0000062
:1029E00081E0F7CD0895B5DF10928B0210928C0232
:1029F00010928D0210928E022FEF8FE794E02150FB
:102A000080409040E1F700C0000080918B029091DF
:102A10008C02A0918D02B0918E0280937F029093E0
:102A20008002A0938102B093820261E081E03DDEEA
:102A300082E292E02CDE40917F0250918002609110
:102A400081027091820225E030E061E082E048DEA0
:102A50002FEF8FEF9CE2215080409040E1F700C0C3
:102A6000000081E0B6CD089577DF10928B021092BE
:102A70008C0210928D0210928E022FEF8FE794E05D
:102A8000215080409040E1F700C0000080918B020F
:102A900090918C02A0918D02B0918E02809383025E
:102AA00090938402A0938502B093860261E081E056
:102AB000FCDD8FE292E0EBDD4091830250918402D5
:102AC000609185027091860225E030E061E082E04D
:102AD00007DE2FEF8FEF9CE2215080409040E1F71E
:102AE00000C0000081E075CD0895259A2D9A0895C3
:102AF000269A2E9A0895F9DFFBCF0895E1E8F0E0D9
:102B000010828CEF8093850081E08093840093E0B5
:102B1000909389008FEF8093880090938B0080932F
:102B20008A0090938D0080938C009093870080930F
:102B300086008BEA80938000109282008CE0808374
:102B40000895F894D8DFDADF7894089583E08093CD
:102B500089008FEF80938800089583E080938B0035
:102B60008FEF80938A0008951092890081E8809306
:102B7000880010928B0088E580938A002FEF8FEFFA
:102B80009CE2215080409040E1F700C0000010928C
:102B9000890088E5809388002FEF8FEF9CE2215019
:102BA00080409040E1F700C0000010928B008BE75E
:102BB00080938A002FEF8FEF9CE22150804090405D
:102BC000E1F700C000001092890081E8809388003E
:102BD0002FEF8FEF9CE2215080409040E1F700C042
:102BE0000000B4DFBACF0895FC01208131812115A6
:102BF0003105A9F0329640E050E080E090E067EEC9
:102C000073E0621773071CF0842F952FB9014F5F93
:102C10005F4F219131912115310599F7089580E099
:102C200090E008958A309105E8F4FC01EE58FF4FDA
:102C30000C94BC2326EE30E11BC02EE833E118C013
:102C40002AE836E015C022E339E012C02AE231E179
:102C50000FC022ED33E10CC02BEF3CE009C02DE1A9
:102C60003DE006C0089526E436E002C02EEE38E0CE
:102C7000822F932F08952F923F924F925F926F92DF
:102C80007F928F929F92AF92BF92CF92DF92EF92FC
:102C9000FF920F931F93CF93DF93CDB7DEB76C975F
:102CA0000FB6F894DEBF0FBECDBFFE01319626E110
:102CB000DF011D922A95E9F723E630E03A83298364
:102CC0003C832B833E832D8338872F833A87298744
:102CD0003C872B873E872D87388B2F873A8B298B14
:102CE0003C8B2B8B80906703909068030F2EF3E64C
:102CF0002F2E312CF02DE3E6F0E0FC8FEB8F5C0102
:102D000000E010E0D5018D919D915D01833091052A
:102D100009F49DC03CF48130910561F0029709F4FB
:102D20004FC06DC18430910509F4D8C0059709F4EE
:102D30001CC165C1F4010580F681E02DF88FEF8B91
:102D4000D40117966D917C9118976250710988276C
:102D500077FD8095982F0E9430236B017C01E894C9
:102D6000F7F86F89788D62507109882777FD809513
:102D7000982F0E9430239F77A70196010E9431224D
:102D80000E94FD222B013C017A8F698F6F89788D1B
:102D900064507109882777FD8095982F0E94302311
:102DA0009B01AC015F77C701B6010E9431220E94EE
:102DB000FD22641575050CF021C17C8F6B8F1FC13E
:102DC000D40115960D90BC91A02DB88FAF8BF40156
:102DD0006781708562507109882777FD8095982FEB
:102DE0000E9430236B017C01E894F7F86F89788D9D
:102DF0006A507109882777FD8095982F0E943023AB
:102E00009F77A70196010E9431220E94FD222B018B
:102E10003C017A8F698F6F89788D6C507109882792
:102E200077FD8095982F0E9430239B01AC015F773E
:102E3000C701B6010E9431220E94FD22641575056A
:102E40001CF05E824D82DBC078876F83D8C0D401CE
:102E500015960D90BC91A02DB88FAF8BF4016781B2
:102E6000708566507109882777FD8095982F0E949C
:102E700030236B017C01E894F7F86F89788D6250FC
:102E80007109882777FD8095982F0E9430239F77BE
:102E9000A70196010E9431220E94FD222B013C01D4
:102EA0007A8F698F6F89788D64507109882777FDD3
:102EB0008095982F0E9430239B01AC015F77C7015A
:102EC000B6010E9431220E94FD22641575051CF096
:102ED0005A86498694C07C876B8791C0D401159629
:102EE0000D90BC91A02DB88FAF8BF40167817085D8
:102EF00066507109882777FD8095982F0E943023AE
:102F00006B017C01E894F7F86F89788D6A5071093C
:102F1000882777FD8095982F0E9430239F77A701FF
:102F200096010E9431220E94FD222B013C017A8FE2
:102F3000698F6F89788D6C507109882777FD80952E
:102F4000982F0E9430239B01AC015F77C701B60127
:102F50000E9431220E94FD22641575051CF05E86D8
:102F60004D864DC0788B6F874AC0D40115966D9100
:102F70007C91169767507109882777FD8095982F67
:102F80000E9430236B017C01E894F7F8F40107807C
:102F9000F085E02DF88FEF8BBF0163507109882712
:102FA00077FD8095982F0E9430239B01AC015F77BD
:102FB000C701B6010E9431220E94FD222B013C0173
:102FC0007A8F698F6F89788D65507109882777FDB1
:102FD0008095982F0E9430239B01AC015F77C70139
:102FE000B6010E9431220E94FD22641575051CF075
:102FF0005A8A498A04C07C8B6B8B01C012010F5F17
:103000001F4F0330110509F07DCE3A8229828B8D46
:103010009C8D9C838B83CE010196E6DD03DE90932D
:103020006403809363036C960FB6F894DEBF0FBE03
:10303000CDBFDF91CF911F910F91FF90EF90DF9067
:10304000CF90BF90AF909F908F907F906F905F9048
:103050004F903F902F900895E0916703F09168039F
:103060002781308588E090E0821B930B05975CF503
:1030700080915A0590915B05892BF1F080910208AF
:1030800090910308892BC1F08091AA0A9091AB0A14
:10309000892B91F08091FA0F9091FB0F892B61F0B1
:1030A0008091A2129091A312892B31F080914A1540
:1030B00090914B15892B39F480E59DE09093640342
:1030C0008093630308958091D2049091D304892B57
:1030D000F1F080917A0790917B07892BC1F0809164
:1030E000220A9091230A892B91F08091720F90917E
:1030F000730F892B61F080911A1290911B12892B0A
:1031000031F08091C2149091C314892B31F488EC72
:103110009CE0909364038093630308953B9A4398E3
:103120000895F894FBDF7894089586B1886088B993
:10313000089586B1877F88B9089510BA11BA1092A0
:103140000701109208010895BFDBF7DF0C94CA0055
:103150000895EAE7F0E0108210927B0080E280930D
:103160007C0080E880BF86E880830895883018F06E
:1031700098E090937B008770806280937C00EAE700
:10318000F0E0808180648083808184FFFDCF809126
:103190007900EAE7F0E090819061908310927B00E3
:1031A0000895CF92DF92EF92FF92BC0180E090E011
:1031B0000E942E2328E431EE42E850E40E9495223A
:1031C0000E940223665F7F4F6B01E12CF12C10926D
:1031D0000C1E10920D1E10920E1E10920F1E1092B9
:1031E000101E1092111E1092121E1092131E82E0D9
:1031F000BDDF8093151E81E0B9DF8093161E83E04A
:10320000B5DF8093141E80910C1E90910D1EA0912D
:103210000E1EB0910F1E8C159D05AE05BF0558F50D
:103220008091101E9091111EA091121EB091131E3C
:103230008C159D05AE05BF05F0F48091101E909190
:10324000111EA091121EB091131E0697A105B10583
:1032500068F480910C1E90910D1EA0910E1EB091ED
:103260000F1E0697A105B10508F4C1CF8091151E68
:10327000873408F4BCCF0E945901FF90EF90DF9093
:10328000CF900895CF93DF93EC010E94530184EB1C
:103290008093280180932A01CE0183DFDF91CF91B3
:1032A0000895CF93DF93EC010E94560184EB809345
:1032B000280180932A01CE0174DFDF91CF91089518
:1032C000F89442DF46DF789408958AE590E0DADFEB
:1032D00080917202813021F484E08093720208951B
:1032E00081508093720208958AE590E0DADF809140
:1032F0007202843021F481E08093720208958F5F1E
:10330000809372020895CF93DF93EC0117C0813050
:1033100029F4C430D10549F4D8DF10C0843029F431
:10332000C130D10511F4E0DF09C02C173D0714F4BA
:10333000DBDF04C0C217D3070CF4C7DF8091720231
:10334000282F30E02C173D0711F7DF91CF9108951A
:10335000CF93DF93EC0117C0813029F4C430D1053D
:1033600049F4B3DF10C0843029F4C130D10511F421
:10337000BBDF09C02C173D0714F4B6DF04C0C21729
:10338000D3070CF4A2DF80917202282F30E02C17B3
:103390003D0711F7DF91CF91089583E0E7DE809339
:1033A000161E82E0E3DE8093151E81E0DFDE80934F
:1033B000141E9091161E9F30D0F42091151E2F30B0
:1033C000B0F481E0809371020E94560186E98093F7
:1033D000280180932A018091151E863408F07FC051
:1033E00082E0C4DE8093151E8634D0F378C08F301F
:1033F000C8F42091151E2F30A8F4109271020E947B
:10340000530186E98093280180932A018091151E3B
:10341000863408F064C082E0A9DE8093151E8634ED
:10342000D0F35DC09531A8F0109271020E94530153
:1034300086E98093280180932A018091151E8634A5
:1034400008F04DC082E092DE8093151E8634D0F3E2
:1034500046C08531A8F081E0809371020E94560138
:1034600086E98093280180932A018091151E863475
:10347000B0F582E07BDE8093151E8634D0F32FC03A
:103480009F3068F58F3058F58091151E8F3038F5D4
:1034900080917102813059F50E94530186E9809331
:1034A000280180932A018091151E8634C0F482E0A1
:1034B0005DDE8093151E8634D0F311C00E94560144
:1034C00086E98093280180932A018091151E863415
:1034D00030F482E04BDE8093151E8634D0F31092D8
:1034E000710288EC8093280180932A0108958091CD
:1034F00071028111F4CFE2CF8BE038DE809370024D
:10350000873408F4EBC0E0916703F091680385818C
:10351000968190937802809377028781908590932B
:103520007602809375021EDA2FEF8FE796E1215025
:1035300080409040E1F700C0000055DA2FEF8FE7A0
:1035400096E1215080409040E1F700C000008CDA05
:103550002FEF8FE796E1215080409040E1F700C0C7
:103560000000409187025091880260918902709119
:103570008A028091830290918402A0918502B09189
:10358000860284179507A607B70708F0C1C04091C7
:103590008702509188026091890270918A0280911D
:1035A0007F0290918002A0918102B09182028417E3
:1035B0009507A607B70708F0ABC0809187029091E6
:1035C0008802A0918902B0918A02893B9B40A105A3
:1035D000B10508F086C09CC0C7DA809102028F5FF7
:1035E000809302028AE090E0089540918302509116
:1035F0008402609185027091860280917F02909191
:103600008002A0918102B091820284179507A607DB
:10361000B70708F0ABC08091830290918402A0911B
:103620008502B0918602893B9B40A105B10508F057
:1036300086C09CC099DA809101028F5F809301025D
:103640008CE090E0089540917F025091800260915B
:103650008102709182028091830290918402A091F4
:103660008502B091860284179507A607B70708F070
:10367000ABC080917F0290918002A0918102B091B5
:103680008202893B9B40A105B10508F086C09CC021
:103690006BDA809100028F5F809300028BE090E0F4
:1036A00008958091870290918802A0918902B0913B
:1036B0008A02883B9B40A105B10508F09EC080911D
:1036C000830290918402A0918502B0918602883B8A
:1036D0009B40A105B10508F486C08FC080E090E052
:1036E000089581E00E94E9128BE392E00E94471363
:1036F0002091020230E080917D0290917E02880F3D
:10370000991F821793070CF067CF80E090E008952F
:1037100040918302509184026091850270918602EB
:103720008091870290918802A0918902B0918A02CB
:1037300084179507A607B70708F457CF17C081E08D
:103740000E94E91287E492E00E944713209101024F
:1037500030E08091790290917A02880F991F821748
:1037600093070CF067CF80E090E0089540917F02CE
:103770005091800260918102709182028091870253
:1037800090918802A0918902B0918A0284179507CE
:10379000A607B70708F457CF17C081E00E94E912C7
:1037A00084E592E00E9447132091000230E080916E
:1037B0007B0290917C02880F991F821793070CF06F
:1037C00067CF80E090E0089580917F029091800221
:1037D000A0918102B0918202883B9B40A105B10576
:1037E00008F45FCF0AC081E00E94E91282E692E00D
:1037F0000E9447138FEF9FEF089581E00C94E91228
:10380000089583E0B3DC8093161E82E0AFDC8093E2
:10381000151E81E0ABDC8093141E9091161E953628
:1038200038F08091151E853648F480E090E00895C8
:103830009091151E953658F0853660F08FEF809385
:10384000040180E88093050181E090E0089580E024
:1038500090E0089580E090E00895E0916703F09192
:103860006803858196819C01277F2230310521F4F0
:1038700082E090E06DDD17C08430910511F00D9766
:1038800021F484E090E064DD0EC087819085833070
:10389000910521F481E090E05BDD05C0059719F406
:1038A00083E090E055DD8EE190E00E948D01109262
:1038B000890088E5809388002FEF8FEF9CE22150EC
:1038C00080409040E1F700C0000010928B0088E536
:1038D00080938A002FEF8FEF9CE221508040904030
:1038E000E1F700C000002FEF8FEF9CE221508040F5
:1038F0009040E1F700C000001092890083E88093B7
:1039000088002FEF8FEF9CE2215080409040E1F73C
:1039100000C000001BD921D9E0916703F091680332
:1039200081E090E09383828320917502309176024A
:10393000609177027091780241E1429FF001439FCC
:10394000F00D112444E551E0649F9001659F300D16
:10395000749F300D1124E20FF31FE458FC4F938342
:103960008283089586E00E94410180EF80932801C0
:1039700086EE80932A0180E590E00C945C01089526
:10398000DF92EF92FF920F931F93CF93DF932EE17D
:10399000289F8001299F100D11241016110624F56F
:1039A000C0E0D0E06894EE24E2F8FF24F394DD2434
:1039B000DA9486E69EE00197F1F7000081E090E05E
:1039C0000E948401ECECFCE13197F1F700C00000AB
:1039D000E4DCF701D08215DF892B11F0C3DF04C0CE
:1039E0002196C017D10729F7DF91CF911F910F9131
:1039F000FF90EF90DF90089580917202823009F479
:103A00004FC018F4813041F00895833009F485C027
:103A1000843009F4C5C00895E0916703F09168030C
:103A20008481833621F48CE090E0AADF2EC08637B3
:103A300081F40184F285E02D8481863721F488E1C8
:103A400090E09EDF22C0833601F58CE090E098DFA5
:103A50001CC0883621F48CE090E092DF16C08A36D4
:103A600071F40184F285E02D8481883621F48CE0A4
:103A700090E086DF0AC086E090E082DF06C08F7D9E
:103A8000833519F486E090E07BDFE0916703F091E5
:103A900068038185928590936803809367030895F6
:103AA000E0916703F09168038481833621F489E013
:103AB00090E066DF27C0863721F48CE090E060DF7D
:103AC00021C0883621F489E090E05ADF1BC08A3695
:103AD00021F48CE090E054DF15C0833771F4038447
:103AE000F485E02D8481833521F486E090E048DF81
:103AF00009C08CE090E044DF05C0833519F486E00E
:103B000090E03EDFE0916703F09168038385948540
:103B100090936803809367030895E0916703F091A1
:103B200068038481833621F48CE090E029DF2DC086
:103B3000863781F40584F685E02D8481863721F46B
:103B400088E190E01DDF21C08336F9F48CE090E03D
:103B500017DF1BC0883621F48CE090E011DF15C020
:103B60008A3671F40584F685E02D8481883621F447
:103B70008CE090E005DF09C086E090E001DF05C041
:103B8000833719F486E090E0FBDEE0916703F09163
:103B900068038585968590936803809367030895ED
:103BA000E0916703F09168038481833621F489E012
:103BB00090E0E6DE27C0863721F48CE090E0E0DE7E
:103BC00021C0883621F489E090E0DADE1BC08A3615
:103BD00021F48CE090E0D4DE15C0833771F40784C3
:103BE000F089E02D8481833521F486E090E0C8DE01
:103BF00009C08CE090E0C4DE05C0833519F486E08E
:103C000090E0BEDEE0916703F091680387859089BC
:103C1000909368038093670308950F931F93CF9346
:103C2000DF9320916103309162031216130654F55D
:103C3000082F192FC0E0D0E0F801819191918F01F8
:103C400062DBDADEE0916703F0916803458156811B
:103C500023E030E065E082E00E947013E0916703AA
:103C6000F09168034781508523E030E069E082E00D
:103C70000E94701321968091610390916203C8178E
:103C8000D907D4F2DF91CF911F910F91089524E5C8
:103C900031E0482F429FC001439F900D11249C01A9
:103CA00041E1649F200D311D1124B90164587C4FFE
:103CB000709364036093630380916703909168033A
:103CC0000E946C128BE992E0A8CF0895AF92BF9248
:103CD000CF92DF92EF92FF920F931F93CF93DF93D8
:103CE000E0916703F091680387819085009709F060
:103CF00039C10F2EF9E0BF2EF02DC2E2DAE00F2E0F
:103D0000FEE0AF2EF02DCC24C394D12C0AE717E0AF
:103D10000F2EF2EDEF2EF4E0FF2EF02D28813981E9
:103D2000232B59F0F80120813181232B31F0F70149
:103D300080819181892B09F089C060E08A2D8B19DF
:103D4000A6DFE0916703F091680322813381232B82
:103D500009F002C183E090E0D6DAFFEF2FE786E1B9
:103D6000F15020408040E1F700C00000C5DB909397
:103D7000740280937302181619060CF052C08B302F
:103D80009105D1F08C30910559F10A9709F03BC0AB
:103D900089E092E00E943B16609163037091640396
:103DA00080916703909168030E946C128BE992E006
:103DB00034DF53DD51D927C08FE092E00E943B16DB
:103DC000609163037091640380916703909168032D
:103DD0000E946C128BE992E020DF3FDD3DD913C0D9
:103DE00083E092E00E943B1660916303709164034C
:103DF00080916703909168030E946C128BE992E0B6
:103E00000CDF2BDD29D960916303709164038091ED
:103E10006703909168030E946C128BE992E0FDDECB
:103E2000E3C1E0916703F0916803D382C2820196F7
:103E300009F092C07AD9FFEF2FEF8CE2F1502040C9
:103E40008040E1F700C0000074D986C060E08B2D8F
:103E50001EDFE0916703F091680382819381892BD3
:103E600009F07AC083E090E04EDA9FEFEFE7F6E1E9
:103E70009150E040F040E1F700C000003DDB90933E
:103E8000740280937302181619060CF052C08B301E
:103E90009105D1F08C30910559F10A9709F03BC09A
:103EA00089E092E00E943B16609163037091640385
:103EB00080916703909168030E946C128BE992E0F5
:103EC000ACDECBDCC9D827C08FE092E00E943B1665
:103ED000609163037091640380916703909168031C
:103EE0000E946C128BE992E098DEB7DCB5D813C063
:103EF00083E092E00E943B1660916303709164033B
:103F000080916703909168030E946C128BE992E0A4
:103F100084DEA3DCA1D86091630370916403809177
:103F20006703909168030E946C128BE992E075DE42
:103F30005BC1E0916703F0916803D382C28201966E
:103F400059F4F3D88FEF9FEFECE281509040E040BE
:103F5000E1F700C00000EDD8B394B394FFE0BF12C6
:103F6000DDCE42C1089709F03FC10F2EF9E0DF2EE8
:103F7000F02DCAEADAE00F2EFEE0CF2EF02D02E09F
:103F800018E00F2EFAE5EF2EF5E0FF2EF02D288138
:103F90003981232B59F0F80120813181232B31F015
:103FA000F70180819181892B09F08CC068E08C2D0C
:103FB0008D196DDEE0916703F091680322813381F2
:103FC000232B09F00CC181E090E09DD9FFEF2FE792
:103FD00086E1F15020408040E1F700C000008CDA1B
:103FE0009093740280937302181619060CF053C054
:103FF0008B309105D1F08C30910559F10A9709F079
:104000003CC089E092E00E943B166091630370918E
:10401000640380916703909168030E946C128BE99E
:1040200092E0FBDD1ADC18D828C08FE092E00E94F5
:104030003B166091630370916403809167039091D4
:1040400068030E946C128BE992E0E7DD06DC04D87D
:1040500014C083E092E00E943B166091630370916C
:10406000640380916703909168030E946C128BE94E
:1040700092E0D3DDF2DB0E942C1860916303709113
:10408000640380916703909168030E946C128BE92E
:1040900092E0C3DDA9C0E0916703F091680321E0DD
:1040A00030E033832283019609F099C03ED8FFEFB8
:1040B0002FEF8CE2F15020408040E1F700C000007B
:1040C00038D88DC068E08D2DE2DDE0916703F09176
:1040D000680382819381892B09F081C081E090E09F
:1040E00012D99FEFEFE7F6E19150E040F040E1F7A1
:1040F00000C0000001DA90937402809373021816D6
:1041000019060CF055C08B309105D9F08C30910513
:1041100069F10A9709F03EC089E092E00E943B16DF
:1041200060916303709164038091670390916803C9
:104130000E946C128BE992E070DD8FDB0E942C18DC
:1041400029C08FE092E00E943B166091630370915A
:10415000640380916703909168030E946C128BE95D
:1041600092E05BDD7ADB0E942C1814C083E092E0C1
:104170000E943B1660916303709164038091670312
:10418000909168030E946C128BE992E046DD65DB3A
:104190000E942C18609163037091640380916703FF
:1041A000909168030E946C128BE992E036DD1CC08E
:1041B000E0916703F091680321E030E033832283CC
:1041C000019669F40E9495188FEF9FEFECE2815001
:1041D0009040E040E1F700C000000E949918D3949D
:1041E000D394FFE0DF12D3CEDF91CF911F910F91D7
:1041F000FF90EF90DF90CF90BF90AF9008952F92F7
:104200003F924F925F926F927F928F929F92AF9266
:10421000BF92CF92DF92EF92FF920F931F93CF93B3
:10422000DF934ED80E9496010E94A4120E940E13A2
:104230000E9491180E94A1150E94A1140E94AF141F
:104240000E949D0181E08093720289E090E098DBFA
:1042500088EC9CE09093680380936703C2EDD4E000
:104260000F2EFAE78F2EF7E09F2EF02D02E21AE0D4
:104270000F2EF2E7EF2EFFE0FF2EF02D0F2EFAE1CA
:10428000CF2EF2E1DF2EF02D0F2EF2ECAF2EF4E167
:10429000BF2EF02D0F2EFAEF2F2EFFE03F2EF02D28
:1042A0000F2EF2EA4F2EF2E15F2EF02D0F2EFAE4E0
:1042B0006F2EF5E17F2EF02D2881398121303105D7
:1042C000C9F4F401808191810197A1F4F801808102
:1042D0009181019779F4F70180819181019751F4DF
:1042E000F60180819181019729F4F5018081918106
:1042F000019749F0E0916703F09168038781908509
:104300008830910529F468E087E0C1DCDFDC1EC05D
:10431000892BE1F4232BC9F0F40180819181892B51
:10432000A1F0F80180819181892B79F0F7018081DA
:104330009181892B51F0F60180819181892B29F09F
:10434000F50180819181892B09F4C0DC88819981F4
:10435000019709F0B1CFF40180819181019709F0B3
:10436000ABCFF80180819181019709F0A5CFF701CA
:1043700080819181019709F09FCFF6018081918121
:10438000019709F099CFF50180819181019709F09A
:1043900093CFEAE5F5E080819181019709F08CCF18
:1043A000E2E0F8E080819181019709F085CFEAEAA7
:1043B000FAE080819181019709F07ECFF10180813F
:1043C0009181019709F078CFF20180819181019765
:1043D00009F072CFF30180819181019709F06CCFD0
:1043E0000E94951880E090E0DF91CF911F910F918E
:1043F000FF90EF90DF90CF90BF90AF909F908F9005
:104400007F906F905F904F903F902F900895FC01A8
:10441000208131812336310551F0329680E090E0E1
:1044200001962191319123363105D1F7089580E02D
:1044300090E0089589E092E0EADF90937E02809315
:104440007D028FE092E0E3DF90937C0280937B0219
:1044500083E092E0DCDF90937A0280937902089502
:104460005058BB27AA270ED04DC13ED130F043D1C2
:1044700020F031F49F3F11F41EF433C10EF4E095A7
:10448000E7FB29C1E92F4FD180F3BA176207730701
:104490008407950718F071F49EF567C10EF4E09556
:1044A0000B2EBA2FA02D0B01B90190010C01CA01EE
:1044B000A0011124FF27591B99F0593F50F4503E99
:1044C00068F11A16F040A22F232F342F4427585F8B
:1044D000F3CF469537952795A795F0405395C9F7A3
:1044E0007EF41F16BA0B620B730B840BBAF091505B
:1044F000A1F0FF0FBB1F661F771F881FC2F70EC0FA
:10450000BA0F621F731F841F48F4879577956795CC
:10451000B795F7959E3F08F0B3CF9395880F08F0B5
:104520009927EE0F9795879508950CD0EBC0E3D0AF
:1045300040F0DAD030F021F45F3F19F0CCC05111D7
:1045400015C1CFC0F0D098F39923C9F35523B1F327
:10455000951B550BBB27AA2762177307840738F0F2
:104560009F5F5F4F220F331F441FAA1FA9F333D051
:104570000E2E3AF0E0E830D091505040E695001C05
:10458000CAF729D0FE2F27D0660F771F881FBB1FC1
:10459000261737074807AB07B0E809F0BB0B802D9B
:1045A000BF01FF2793585F4F2AF09E3F510568F0E7
:1045B00092C0DCC05F3FECF3983EDCF386957795C4
:1045C0006795B795F7959F5FC9F7880F911D9695E9
:1045D000879597F90895E1E0660F771F881FBB1F45
:1045E000621773078407BA0720F0621B730B840BF2
:1045F000BA0BEE1F88F7E095089504D06894B111C6
:10460000B5C0089598D088F09F5790F0B92F99279A
:10461000B751A0F0D1F0660F771F881F991F1AF0CD
:10462000BA95C9F712C0B13081F09FD0B1E00895BA
:104630009CC0672F782F8827B85F39F0B93FCCF33B
:10464000869577956795B395D9F73EF490958095C3
:10465000709561957F4F8F4F9F4F0895E89409C0E3
:1046600097FB3EF490958095709561957F4F8F4FA5
:104670009F4F9923A9F0F92F96E9BB279395F695BB
:10468000879577956795B795F111F8CFFAF4BB0F39
:1046900011F460FF1BC06F5F7F4F8F4F9F4F16C09D
:1046A000882311F096E911C0772321F09EE8872F27
:1046B000762F05C0662371F096E8862F70E060E0E3
:1046C0002AF09A95660F771F881FDAF7880F96955C
:1046D000879597F9089597F99F6780E870E060E003
:1046E00008959FEF80EC089500240A94161617068B
:1046F00018060906089500240A94121613061406D3
:1047000005060895092E0394000C11F4882352F035
:10471000BB0F40F4BF2B11F460FF04C06F5F7F4FED
:104720008F4F9F4F089557FD9058440F551F59F0D4
:104730005F3F71F04795880F97FB991F61F09F3F8E
:1047400079F087950895121613061406551FF2CFB7
:104750004695F1DF08C0161617061806991FF1CF07
:1047600086957105610508940895E894BB2766272E
:104770007727CB0197F90895EE0FFF1F0590F4916D
:10478000E02D1994A29FB001B39FC001A39F700DAB
:10479000811D1124911DB29F700D811D1124911D49
:0E47A00008950790F691E02D1994F894FFCF3C
:1047AE0001010103000400630002006300630001C5
:1047BE0000050063006B035265642050756C7365D1
:1047CE007300477265656E2050756C736573004299
:1047DE006C75652050756C73657300526573756CDE
:1047EE00743D2052454400526573756C743D2042F1
:1047FE004C554500526573756C743D2047524545C6
:10480E004E00526573756C743D20424C41434B0013
:00000001FF
